:100000000C943B000C9463000C9463000C9463000C
:100010000C9463000C9463000C9463000C946300D4
:100020000C9463000C9463000C9463000C946300C4
:100030000C9463000C9463000C9463000C946300B4
:100040000C94C2040C9463000C9444050C9463005B
:100050000C9463000C9463000C9463000C94630094
:100060000C9463000C9463006364696E6F70737525
:1000700078585B00D50611241FBECFEFD8E0DEBF55
:10008000CDBF11E0A0E0B1E0E6E2F0E102C00590F2
:100090000D92A431B107D9F712E0A4E1B1E001C09B
:1000A0001D92A830B107E1F710E0C6E7D0E004C028
:1000B0002297FE010E94CB07C437D107C9F70E94DF
:1000C000BB040C9411080C940000FC0188279927AC
:1000D000E89421912032E9F3293010F02E30C8F352
:1000E0002B3241F02D3239F4689404C00E94830011
:1000F000820F911D219120532A30C0F31EF4909558
:1001000081959F4F08957AE0979F902D879F802D2E
:10011000910D11240895AEE0B0E0E1E9F0E00C9417
:10012000EA0785E08C838B899C899A8389839E0169
:10013000295E3F4FCE0101966D897E89A9010E94FB
:1001400029022E96E2E00C940608FC0120FD08C06E
:1001500023FD05C022FF02C0738362835183408365
:100160000895EF92FF920F931F9344FF02C033E074
:1001700011C046FF02C034E00DC0DB01FC01AA0F34
:10018000BB1FEE1FFF1F1094D1F76A0F7B1F8E1F3E
:100190009F1F31E0660F771F881F991F3150D1F7DD
:1001A0007B018C01E20EF11C011D111DA8019701BC
:1001B000B701CA011F910F91FF90EF9008950F931F
:1001C0001F93CF93DF938C01C8010E944503EC017C
:1001D00097FD08C00E94CF07892BB1F7CE01B80167
:1001E0000E948703CE01DF91CF911F910F91089557
:1001F000A0E0B0E0EEEFF0E00C94E207EC01C62ED8
:100200005A01122F0E944503AC018B3219F08D3236
:1002100051F41068CA9409F46DC0CE010E944503E0
:10022000AC0197FD67C06DEFD62ED1228D2D807366
:1002300001F54033F1F4CA9409F447C0CE010E949D
:100240004503AC0197FD41C082E0D82A483711F040
:10025000483559F480E4D82ACA94B9F1CE010E94F5
:100260004503AC0199232CF430C0D6FC02C080E1D8
:10027000D82AEE24FF248701242F2053283088F029
:10028000D4FC09C02A3068F0D6FE05C02F7D822F2D
:100290008151863028F0CA01BE010E94870312C036
:1002A0002750C801B7014D2D0E94B1007B018C0180
:1002B00082E0D82ACA9461F0CE010E944503AC01C5
:1002C00097FFDACFD1FC04C015C0EE24FF248701CC
:1002D000D7FE08C010950095F094E094E11CF11C45
:1002E000011D111DC501B801A7012D2D0E94A500FA
:1002F00081E001C080E0CDB7DEB7EAE00C94FE07F4
:10030000A0E2B0E0E6E8F1E00C94DE076C01A62E76
:100310008A017901FE01319680E2DF011D928A9502
:10032000E9F770E030E060E040E050E04F01A1E02C
:10033000B0E0F6018381F70183FD259183FF2191D0
:100340007F01222309F47EC02E3519F44115510591
:1003500069F1872F90E08417950744F42D3551F10A
:100360002D3221F4332329F431E021C0332309F461
:10037000622F322F832F869586958695F401E80F9C
:10038000F11D832F87703D0102C0660C771C8A9592
:10039000E2F7208126292083361711F430E007C0C8
:1003A000361710F43F5FE6CF3150E4CF71E04F5F76
:1003B0005F4FBFCF332319F08E8180628E83772306
:1003C00059F0FE0131969E012F5D3F4F808180954F
:1003D0008193E217F307D1F7BB24B3944E0108943D
:1003E000811C911CC6010E944503AC0197FD22C0EF
:1003F000869586958695F401E80FF11D808190E041
:100400009A012770307002C0959587952A95E2F77A
:1004100080FD05C0CA01B6010E9487030BC001150B
:10042000110519F0D8014D938D01AA94BB24AA207F
:10043000C9F602C0BB2031F40115110529F0F801FD
:10044000108202C0EE24FF24C701A096EEE00C94B7
:10045000FA07A0E0B0E0EFE2F2E00C94DE075C0106
:100460006B013A01FC01178216828824EAC0812FB1
:1004700090E00E94CF07892B21F0C5010E94DF0088
:10048000E0C0153249F4F601F3FC6591F3FE619189
:100490006F01653269F415E2C5010E94450397FDBD
:1004A000DCC0181709F4CDC0B5010E948703DAC07B
:1004B0006A3219F0162F00E006C0F3FC1591F3FE26
:1004C00011916F0101E099240FC00260692D70E065
:1004D00080E090E040E20E94B100962EF601F3FC2D
:1004E0001591F3FE11916F01212F20532A3068F3EB
:1004F00001FD03C099249A9403C0992009F4B2C065
:10050000183621F01C3699F4F6010BC0F601F3FC05
:100510006591F3FE6191683619F06F01162F07C0DF
:1005200008600460F3FC1591F3FE11916F01112333
:1005300009F498C088E690E0612F70E00E943A03C9
:10054000892B09F48FC0802F00FF03C0EE24FF2405
:1005500007C0F301E080F18022E030E0620E731EFC
:100560001E3651F4F5014681578160E070E0C70105
:10057000202F0E94A50065C0133691F481FD02C0B2
:1005800099249394C5010E94450397FD66C0E11428
:10059000F10419F0F70181937F019A9499F74FC004
:1005A0001B3559F4C501692DA70196010E948001F0
:1005B0006C01009709F043C03DC0C5010E94DF00F7
:1005C00097FD4BC01F3659F1103728F4143629F126
:1005D000193639F527C0133719F0153711F51DC035
:1005E000C5010E944503EC0197FD11C00E94CF0791
:1005F000892B29F0CE01B5010E94870308C0E114C0
:10060000F10419F0F701C1937F019A9449F7E114BD
:10061000F104A9F0F701108212C0006203C000616A
:1006200001C00064C501692DA701202F0E94F800B8
:10063000882329F4F5018381807379F413C000FFC6
:100640008394F501F380F601F3FC1591F3FE11910B
:100650006F01112309F00BCF05C0882019F42FEF8B
:100660003FEF02C0282D30E0C901CDB7DEB7EEE084
:100670000C94FA07FC010590061621F00020D9F72A
:10068000C00108953197CF010895CF93DF93EC0116
:100690004B8140FF1AC046FF0AC04F7B4B838E81BF
:1006A0009F8101969F838E838A81282F2BC042FFD2
:1006B00013C0E881F9818081282F332727FD3095E9
:1006C0002115310529F440624B832FEF3FEF1BC00A
:1006D0003196F983E88311C0EA85FB85CE0109953F
:1006E0009C0197FF0AC09B812F5F3F4F11F080E272
:1006F00001C080E1892B8B83E8CF8E819F81019699
:100700009F838E8330E0C901DF91CF9108959C01D2
:10071000FB01838180FF11C086FD0FC09FEF2F3F3B
:10072000390759F0228380648F7D83838681978186
:1007300001979783868330E002C02FEF3FEFC90116
:1007400008958F929F92AF92BF92CF92DF92EF92D5
:10075000FF920F931F93DF93CF9300D000D00F929F
:10076000CDB7DEB728E1E22E21E0F22E8C0190E039
:10077000892E91E0992E83E0C82ED12CCC0EDD1E5F
:100780005E010894A11CB11C11C0C6010E94650045
:10079000D7018D939D937D01E981FA81E00FF11FCF
:1007A00080818C3221F58F010F5F1F4FEDB7FEB7AF
:1007B00038970FB6F894FEBF0FBEEDBF3196ADB7B8
:1007C000BEB712961C930E93119793828282D582A4
:1007D000C482B782A6820E948B00EDB7FEB738961E
:1007E0000FB6F894FEBF0FBEEDBF019771F20F90E8
:1007F0000F900F900F900F90CF91DF911F910F915D
:10080000FF90EF90DF90CF90BF90AF909F908F9030
:100810000895EF92FF920F931F93CF93DF937C0184
:1008200085EF91E00E947A06882319F420E030E0F9
:100830001BC0C0E0D0E007C085EF91E00E948E06AB
:10084000F8018083219685EF91E00E947A06870166
:100850000C0F1D1F882381F7F801108285EF91E0AE
:100860000E94B60621E030E0C901DF91CF911F91CF
:100870000F91FF90EF900895CF93DF9386E391E07F
:100880000E940904019759F486E391E00E94A103B4
:10089000E6E3F1E0119281E0E836F807D9F78CEF52
:1008A0008BB98FEF85B92091300130913101809162
:1008B000320190913301A0E0B0E0C1E0D0E039C056
:1008C000E8E1F1E042E050E026C0808191816817C4
:1008D0007907F1F44830510564F42BB1CE01042EB0
:1008E00002C0880F991F0A94E2F7809582238BB982
:1008F0000FC025B148505040CE01042E02C0880FD1
:10090000991F0A94E2F7485F5F4F8095822385B96B
:100910004F5F5F4F32964E305105B9F66F5F7F4F94
:100920002EE030E081E06030780751F6119680E0EB
:1009300091E0A330B1051CF460E070E0F3CF309398
:100940003101209330019093330180933201B093B1
:100950003501A0933401DF91CF91089585EF91E0A7
:1009600040E052EC61E070E00E9481058CEF8AB9B2
:100970008FEF84B908950E940A050E94AE040E9478
:100980003C04FDCF1F920F920FB60F9211242F93AC
:100990003F938F939F93AF93BF9380916C019091FE
:1009A0006D01A0916E01B0916F01309170010196BF
:1009B000A11DB11D232F2D5F2D3720F02D5701963E
:1009C000A11DB11D2093700180936C0190936D0166
:1009D000A0936E01B0936F018091680190916901BD
:1009E000A0916A01B0916B010196A11DB11D809388
:1009F000680190936901A0936A01B0936B01BF9164
:100A0000AF919F918F913F912F910F900FBE0F90BB
:100A10001F901895789484B5826084BD84B58160F8
:100A200084BD85B5826085BD85B5816085BDEEE6F6
:100A3000F0E0808181608083E1E8F0E08081826085
:100A40008083808181608083E0E8F0E08081816044
:100A50008083E1EBF0E0808184608083E0EBF0E074
:100A6000808181608083EAE7F0E080818460808318
:100A700080818260808380818160808380818068C2
:100A800080831092C10008951F920F920FB60F92AB
:100A900011242F933F934F935F936F937F938F9383
:100AA0009F93AF93BF93EF93FF934091C600E09164
:100AB000F101F091F201CF01019660E870E00E942F
:100AC00065079C018091F3019091F4012817390783
:100AD00039F0EF58FE4F40833093F2012093F1013B
:100AE000FF91EF91BF91AF919F918F917F916F9106
:100AF0005F914F913F912F910F900FBE0F901F90DC
:100B000018955F926F927F928F929F92AF92BF9251
:100B1000CF92DF92EF92FF920F931F93CF93DF93C9
:100B2000EC013A014B01413482E458078FE0680739
:100B300080E078070CF07FC060E874E88EE190E018
:100B4000A40193010E949A07215030404040504038
:100B5000CA01B90122E030E040E050E00E949A076B
:100B600059016A01A601950120953095409550954F
:100B700094E0220F331F441F551F9A95D1F760E070
:100B800074E284EF90E00E949A07CA01B9012FEF46
:100B900030E040E050E00E944607A40193010E942B
:100BA0009A07C90181509F4F181619061CF4522E3E
:100BB0005A9403C055245394521A60E079E08DE3AF
:100BC00090E0A40193010E949A07215030404040D8
:100BD0005040CA01B90122E030E040E050E00E94FC
:100BE0009A07209530954095509583E0220F331F4A
:100BF000441F551F8A95D1F760E074E284EF90E0BE
:100C00000E949A07CA01B9012FEF30E040E050E09E
:100C10000E944607A40193010E949A07C9018150CE
:100C20009F4F181619061CF4822F815002C081E0D4
:100C3000821B851500F5E885F98581E090E00A883A
:100C400002C0880F991F0A94E2F7808360E079E080
:100C50008DE390E0A40193010E949A072150304057
:100C600040405040CA01B90122E030E040E050E08D
:100C70000E949A0704C0E885F98510829501EC81ED
:100C8000FD813083EE81FF812083EA85FB85208111
:100C900041E050E0CA010E8402C0880F991F0A94F7
:100CA000E2F7282B2083EA85FB852081CA010F8487
:100CB00002C0880F991F0A94E2F7282B2083EA8547
:100CC000FB858081088802C0440F551F0A94E2F713
:100CD000842B8083DF91CF911F910F91FF90EF9034
:100CE000DF90CF90BF90AF909F908F907F906F904C
:100CF0005F900895DC011296ED91FC911397E058F6
:100D0000FF4F8191919180589F4F20813181821BAB
:100D1000930B60E870E00E9465070895CF93DF931E
:100D2000DC011296ED91FC911397EF01CE57DF4F46
:100D300048815981E058FF4F80819181E058F0400F
:100D40008417950719F42FEF3FEF0CC0E40FF51F40
:100D50002081CA01019660E870E00E9465079983CE
:100D6000888330E0C901DF91CF910895DC011296AC
:100D7000ED91FC911397EE57FF4F808191819293F3
:100D800082930895FC01A085B18521898C9190E022
:100D9000022E02C0959587950A94E2F780FFF6CF60
:100DA0000484F585E02D608308958EE091E09093B2
:100DB000F6018093F50181E791E09093F80180932B
:100DC000F70185EC90E09093FA018093F90184ECAF
:100DD00090E09093FC018093FB0180EC90E0909375
:100DE000FE018093FD0181EC90E0909300028093DE
:100DF000FF0186EC90E0909302028093010284E070
:100E00008093030283E08093040287E080930502CD
:100E100085E08093060281E08093070208950F9396
:100E20001F93CF93DF938C01EB0109C02196D8016A
:100E3000ED91FC910190F081E02DC8010995688148
:100E40006623A1F7DF91CF911F910F910895EF9243
:100E5000FF920F931F93CF93DF938C017B01EA01E5
:100E60000CC0D7016D917D01D801ED91FC910190ED
:100E7000F081E02DC80109952197209791F7DF9126
:100E8000CF911F910F91FF90EF900895629FD00135
:100E9000739FF001829FE00DF11D649FE00DF11D35
:100EA000929FF00D839FF00D749FF00D659FF00DE4
:100EB0009927729FB00DE11DF91F639FB00DE11DD1
:100EC000F91FBD01CF011124089597FB092E0726B4
:100ED0000AD077FD04D049D006D000201AF47095CE
:100EE00061957F4F0895F6F7909581959F4F0895EE
:100EF000A1E21A2EAA1BBB1BFD010DC0AA1FBB1F1E
:100F0000EE1FFF1FA217B307E407F50720F0A21B8F
:100F1000B30BE40BF50B661F771F881F991F1A94FC
:100F200069F760957095809590959B01AC01BD0126
:100F3000CF01089597FB092E05260ED057FD04D04A
:100F4000D7DF0AD0001C38F4509540953095219594
:100F50003F4F4F4F5F4F0895F6F7909580957095EE
:100F600061957F4F8F4F9F4F0895AA1BBB1B51E187
:100F700007C0AA1FBB1FA617B70710F0A61BB70B09
:100F8000881F991F5A95A9F780959095BC01CD01AE
:100F90000895EE0FFF1F0590F491E02D0994911133
:100FA00006C0803219F089508550D0F708959927EE
:100FB000882708952F923F924F925F926F927F926F
:100FC0008F929F92AF92BF92CF92DF92EF92FF9259
:100FD0000F931F93CF93DF93CDB7DEB7CA1BDB0B05
:100FE0000FB6F894DEBF0FBECDBF09942A883988AA
:100FF00048885F846E847D848C849B84AA84B984B1
:10100000C884DF80EE80FD800C811B81AA81B981BC
:10101000CE0FD11D0FB6F894DEBF0FBECDBFED01D0
:061020000895F894FFCFD3
:101026002533315B5E2C5D256E0000000000C20694
:041036000F07270772
:00000001FF
